:0701F000010C00020D000AE2
:04014F00AB07AA064A
:10015300E4F508F509F50A750B10900001FC7D0A1A
:10016300120038AF82AE83120026EF2509F509EE9F
:100173003508F5087C007D0AAF03AE02120038ACE7
:100183000AAD0BAF82AE831200268E838F82AF0936
:010193002249
:10000300D2A1C37464950EFFE4950DFE1201C8C21C
:0E001300A1AF0EAE0D1201C8D2A1E4FEFF2275
:1001AF00750F007510321201947F661201DC120078
:0901BF0003750D00850C0E80F59E
:030023000201E7F0
:0901E70030980585990CC298328C
:1001940053877F75985053890F438920758BFD755C
:0B01A4008DFDC2ABD28ED2AFD2AC22D8
:0B01DC008F993099FDC299E4FEFF22CC
:1001C800EF4E600F7D027CEFDCFEDDFCEF1F70F070
:0301D8001E80ED99
:0101DB002201
:030000000200C338
:0C00C300787FE4F6D8FD75811002010A78
:10002600EF8DF0A4A8F0CF8CF0A428CE8DF0A42EEE
:02003600FE22A8
:10003800C2D5EC30E709B2D5E4C39DFDE49CFCEEE3
:1000480030E715B2D5E4C39FFFE49EFE12006EC3ED
:10005800E49DFDE49CFC800312006E30D507C3E4E8
:060068009FFFE49EFE2252
:1000CF000201AFE493A3F8E493A34003F68001F297
:1000DF0008DFF48029E493A3F85407240CC8C33332
:1000EF00C4540F4420C8834004F456800146F6DF01
:1000FF00E4800B01020408102040809001F0E47EA0
:10010F00019360BCA3FF543F30E509541FFEE493F5
:10011F00A360010ECF54C025E060A840B8E493A3BC
:10012F00FAE493A3F8E493A3C8C582C8CAC583CAE7
:10013F00F0A3C8C582C8CAC583CADFE9DEE780BE9F
:0101F7000007
:10006E00BC000BBE0029EF8DF084FFADF022E4CC76
:10007E00F875F008EF2FFFEE33FEEC33FCEE9DEC3F
:10008E00984005FCEE9DFE0FD5F0E9E4CEFD22ED85
:10009E00F8F5F0EE8420D21CFEADF075F008EF2FCF
:1000AE00FFED33FD4007985006D5F0F222C398FDC0
:0500BE000FD5F0EA225D
:00000001FF
