:1002AF0012041D120452751CB4751D49D51DFDD5C0
:1002BF001CFA1204521203158F1B8E1A8D198C18EB
:1002CF001200E1AB07AA06750C027D027F02120332
:0302DF008280DF3B
:06044300C2A58F80D2A7C4
:080449007F027EEFDEFEDFFC06
:010451002288
:0A046B00C2A6120443C2A70204490E
:10036400CFCDCFCECCCE1201A17C007D0A1201A14B
:04037400ED2430FF45
:0A037800D2A6120443C2A7020449F2
:10040700AE07BE0104ED148006BE0209ED243F4489
:0604170080FF12046B22BD
:10041D007F3812046B7F0C12046B7F0612046B7F06
:04042D000102046B59
:0A047500AC03120407AF0402037881
:060341008B288A29892A9D
:10034700120407E4FDAB28AA29A92A8D8275830028
:0C035700120162FF60061203780D80E9BD
:010363002277
:0C02E2007F0AEA24FFFDE434FFFC7E00EC
:0802EE008E0D8F0E8C0F8D1098
:1002F6007F017E00E4FBEBC39510E50F6480F87484
:0E0306008098500AAC0DAD0E12018F0B80E8EE
:0103140022C6
:040382008A0A8B0B4D
:10038600120407AA0CEAD39400400D1202E2AC0A4A
:08039600AD0B1203641A80EDA7
:01039E00223C
:10020400120407C3EA64809480400B7F2B120378A6
:100214008A168B17800E7F2D120378C3E49BF51783
:10022400E49AF516AA15EAD39400400D1202E2AC42
:0902340016AD171203641A80EDE7
:01023D00229E
:04023E008A208B2166
:10024200120407AA22EAD3940040297F101202E482
:10025200AC20AD21CFCDCFCECCCE1201A1EF540F29
:10026200FEC3940AEE5004243080022437FF1203A6
:04027200781A80D1A5
:010276002265
:040277008A258B2623
:10027B00120407AA27EAD394004028EA24FFFDE4DE
:10028B0034FFFC7F027E001202EEAC25AD26CFCDF3
:10029B00CFCECCCE1201A1EF54012430FF12037844
:0302AB001A80D2E4
:0102AE00222D
:0D0452001203BC7FCC1203D67F440203D6F8
:100315001203BC7FCC1203D67FBE1203D612039FF5
:100325008F0812039FEFFEE508FFFDAC06EC1200F7
:0B033500A8E4FBFA7980784112000672
:01034000229A
:1003BC00D2B7C2B77FF7DFFED2B77F20DFFEA2B77E
:0903CC00E433FE7FF7DFFEAF060B
:0103D5002205
:10043100C2B77E04DEFEEF24FF92B77E18DEFED245
:01044100B703
:010442002297
:1003EF00C2B77F02DFFED2B77F02DFFEA2B7E433D0
:0703FF00FE7F18DFFEAF06D0
:0104060022D3
:0203D600AD0771
:1003D800E4FC7401A804088002C333D8FC5DFF1252
:0603E80004310CBC08EC1E
:0103EE0022EC
:10039F00E4FDFC1203EFEF600D7401A80408800266
:0C03AF00C333D8FC42050CBC08E9AF05C4
:0103BB00221F
:10000300020157EC5D046005E85904700302014DD9
:10001300120118580460F6EC4860F2EC7004FDFE1F
:10002300FF22C860DB2481C85009C39860025006D0
:100033000201549850CAF582E9294B4A7005AB82F4
:1000430002014375F0007C1A7880C3EF9BEE9AEDB2
:1000530099400DC3EF9BFFEE9AFEED99FDE842F048
:10006300DC23ACF0D0E0FFD0E0FED0E0FDAB82209B
:10007300E7101BEB60BAEC2CFCEF33FFEE33FEED25
:1000830033FD02012FE803F830E705C0F075F000F7
:10009300EF2FFFEE33FEED33FD40B830E7C280AA09
:1000A30075F020800E75F010800575F0087D007ED8
:1000B300007F003392D530D5031201F6EC334010A4
:1000C300EF33FFEE33FEED33FDEC33FCD5F0ED22E1
:0E00D300E5F0247EA2D513CC92E7CDCEFF221D
:1000E100EDD2E7CD33EC3392D524814006E4FFFE17
:1000F100FDFC22FCE4CFCECDCC24E0501174FF8076
:10010100EDC3CC13CCCD13CDCE13CECF13CF047012
:07011100F030D5DE0201F61B
:10011800E9D2E7C933E833F892D5EDD2E7CD33EC2D
:0701280033FC5002B2D522A6
:10012F00EC30E7100FBF000C0EBE00080DBD000431
:10013F000BEB6014A2D5EB13FCED92E7FD2274FFDD
:10014F00FCFDFEFF22E480F8A2D574FF13FC7D8036
:03015F00E480EF4A
:0300000002045F98
:0C045F00787FE4F6D8FD75812A0202AF18
:10016200BB010CE58229F582E5833AF583E0225052
:1001720006E92582F8E622BBFE06E92582F8E2229C
:0D018200E58229F582E5833AF583E49322B6
:10018F00EF8DF0A4A8F0CF8CF0A428CE8DF0A42E84
:02019F00FE223E
:1001A100BC000BBE0029EF8DF084FFADF022E4CC42
:1001B100F875F008EF2FFFEE33FEEC33FCEE9DEC0B
:1001C100984005FCEE9DFE0FD5F0E9E4CEFD22ED51
:1001D100F8F5F0EE8420D21CFEADF075F008EF2F9B
:1001E100FFED33FD4007985006D5F0F222C398FD8C
:0501F1000FD5F0EA2229
:0E01F600C3E49FFFE49EFEE49DFDE49CFC221A
:00000001FF
