:0B02AC0001083202090032020B0000C2
:10029200D2A2C2A012026CAF0A1202B8758CFC750F
:0A02A2008A1775090085080A80F824
:030023000202C313
:0902C300309805859908C29832B3
:03000B00020106E9
:10010600C0E0C0F0C083C082C0D075D000C000C0BF
:1001160001C002C003C004C005C006C007AE09AFD7
:100126000A7C017D90120026AA06EA3395E0F9F8CA
:10013600C374179FFF74FC9AFEE499FDE498FCE4EF
:10014600FB7A01F9F81202288F8CAE09AF0A7C01FE
:100156007D90120026AA06EA3395E0F9F8C37417D3
:100166009FFF74FC9AFEE499FDE498FCE4FB7A0197
:10017600F9F8120228AF038F8AB2A1D007D006D0B1
:1001860005D004D003D002D001D000D0D0D082D088
:0601960083D0F0D0E0323E
:10026C0053877F759850758921758BFD758DFD753C
:10027C008A18758CFCC28DD28CD2A9C2B9C2ABD2F1
:06028C008ED2AFD2AC22BD
:0B02B8008F993099FDC299E4FEFF22EF
:10000E00EF4E600F7D027CEFDCFEDDFCEF1F70F02B
:03001E001E80ED54
:0100210022BC
:0300000002019C5E
:0C019C00787FE4F6D8FD75810C0201E3C9
:10002600EF8DF0A4A8F0CF8CF0A428CE8DF0A42EEE
:02003600FE22A8
:10022800C2D5E830E70FB2D5E4C39BFBE49AFAE401
:1002380099F9E498F8EC30E717B2D512025E12008B
:1002480074E4C39BFBE49AFAE499F9E498F8800310
:1002580012007430D50DE4C39FFFE49EFEE49DFDBB
:04026800E49CFC22F4
:1001A800020292E493A3F8E493A34003F68001F2D9
:1001B80008DFF48029E493A3F85407240CC8C33358
:1001C800C4540F4420C8834004F456800146F6DF27
:1001D800E4800B01020408102040809002ACE47E09
:1001E800019360BCA3FF543F30E509541FFEE4931C
:1001F800A360010ECF54C025E060A840B8E493A3E3
:10020800FAE493A3F8E493A3C8C582C8CAC583CA0D
:10021800F0A3C8C582C8CAC583CADFE9DEE780BEC5
:0102B7000046
:1000380075F008758200EF2FFFEE33FECD33CDCC7F
:1000480033CCC58233C5829BED9AEC99E582984002
:100058000CF582EE9BFEED9AFDEC99FC0FD5F0D6DF
:10006800E4CEFBE4CDFAE4CCF9A88222B800C1B909
:100078000059BA002DEC8BF084CFCECDFCE5F0CB47
:10008800F97818EF2FFFEE33FEED33FDEC33FCEB80
:1000980033FB10D703994004EB99FB0FD8E5E4F93B
:1000A800FA227818EF2FFFEE33FEED33FDEC33FC28
:1000B800C933C910D7059BE99A4007EC9BFCE99A1C
:1000C800F90FD8E0E4C9FAE4CCFB2275F010EF2F61
:1000D800FFEE33FEED33FDCC33CCC833C810D70761
:1000E8009BEC9AE899400AED9BFDEC9AFCE899F89C
:0E00F8000FD5F0DAE4CDFBE4CCFAE4C8F9222F
:00000001FF
