:100206000A0E09080C04060203010908020C000084
:06021600010801010B0AC2
:0D012A00AF82740E2FF8E6F5A07F647E0012
:10013700E4FDFCC3ED9FEC9E5015E4FAFB0BBB00FE
:0F014700010AEB64784A70F50DBD00010C80E4ED
:010156002286
:1001CB0053877F759850758921758BFD758DFDC291
:1001DB00ABD28E758C3C758CB0D28CD2A9D2AFD2EF
:0201EB00AC2244
:10017F00E4F583F58212012AA3E5826407458370B3
:10018F00F490000712012AE582158270021583E5AB
:05019F0082458370EFB2
:0101A4002238
:0D000E001201CBE50875F00AA4F50B80F691
:03002300020228AE
:09022800309805859908C298324E
:03000B000200B23E
:1000B200C0E0C0D075D000C000758C3C758CB00516
:1000C2000AE50A70020509650B7002E5097052C360
:1000D200E519940AE518648094805008740E251975
:1000E200F8E6F5A0D3E50D9409E50C648094804010
:1000F2000A7413950D240EF8E6F5A0E50D64124579
:100102000C7008F518F519F50CF50D0519E51970BF
:10011200020518050DE50D7002050C750900750A3A
:0801220000D000D0D0D0E03283
:1001A50053877F759850758921758BFD758DFD7504
:1001B5008A18758CFCC28DD28CD2A9C2B9C2ABD2B9
:0601C5008ED2AFD2AC2285
:0B021D008F993099FDC299E4FEFF228A
:100157008B1A8A1B891CAB1AAA1BA91C1201ED60FA
:1001670013051CE51C7002051B14F91201EDFF12A3
:08017700021D80E2E4FEFF22FC
:03000000020026D5
:0C002600787FE4F6D8FD75811C02006DA7
:1001ED00BB010689828A83E0225002E722BBFE0210
:0901FD00E32289828A83E4932243
:1000320002000EE493A3F8E493A34003F68001F2D6
:1000420008DFF48029E493A3F85407240CC8C333CF
:10005200C4540F4420C8834004F456800146F6DF9E
:10006200E4800B0102040810204080900206E47E26
:10007200019360BCA3FF543F30E509541FFEE49393
:10008200A360010ECF54C025E060A840B8E493A35A
:10009200FAE493A3F8E493A3C8C582C8CAC583CA85
:1000A200F0A3C8C582C8CAC583CADFE9DEE780BE3D
:01021C0000E1
:00000001FF
